{"abi":[{"type":"function","name":"complete_task","inputs":[{"name":"invoiceId","type":"uint256","internalType":"uint256"}],"outputs":[],"stateMutability":"nonpayable"},{"type":"function","name":"increment","inputs":[],"outputs":[],"stateMutability":"nonpayable"},{"type":"function","name":"number","inputs":[],"outputs":[{"name":"","type":"uint256","internalType":"uint256"}],"stateMutability":"view"},{"type":"function","name":"receive_payment","inputs":[{"name":"invoiceId","type":"uint256","internalType":"uint256"}],"outputs":[],"stateMutability":"payable"},{"type":"function","name":"request_for_quote","inputs":[{"name":"newNumber","type":"uint256","internalType":"uint256"}],"outputs":[{"name":"invoiceId","type":"uint256","internalType":"uint256"}],"stateMutability":"nonpayable"},{"type":"function","name":"setNumber","inputs":[{"name":"newNumber","type":"uint256","internalType":"uint256"}],"outputs":[],"stateMutability":"nonpayable"},{"type":"function","name":"transfer_payment","inputs":[{"name":"invoiceId","type":"uint256","internalType":"uint256"}],"outputs":[],"stateMutability":"nonpayable"},{"type":"event","name":"RequestForQuote","inputs":[{"name":"sender","type":"address","indexed":true,"internalType":"address"}],"anonymous":false}],"bytecode":{"object":"0x608060405234801561001057600080fd5b506101ad806100206000396000f3fe6080604052600436106100705760003560e01c8063905fde911161004e578063905fde91146100d0578063d09de08a146100eb578063e3483985146100d0578063ff52f5641461010057600080fd5b806325a863a8146100755780633fb5c1cb146100885780638381f58a146100a8575b600080fd5b610086610083366004610137565b50565b005b34801561009457600080fd5b506100866100a3366004610137565b600055565b3480156100b457600080fd5b506100be60005481565b60405190815260200160405180910390f35b3480156100dc57600080fd5b50610086610083366004610137565b3480156100f757600080fd5b50610086610121565b34801561010c57600080fd5b506100be61011b366004610137565b50600090565b60008054908061013083610150565b9190505550565b60006020828403121561014957600080fd5b5035919050565b60006001820161017057634e487b7160e01b600052601160045260246000fd5b506001019056fea26469706673582212205a0dbd9308bcbf8f727cd6f17148943f3717aaa2e7c023709d40cdf23a5c5d1464736f6c63430008150033","linkReferences":{}},"methodIdentifiers":{"complete_task(uint256)":"e3483985","increment()":"d09de08a","number()":"8381f58a","receive_payment(uint256)":"25a863a8","request_for_quote(uint256)":"ff52f564","setNumber(uint256)":"3fb5c1cb","transfer_payment(uint256)":"905fde91"},"id":20}